{
  "_format": "hh-sol-artifact-1",
  "contractName": "SimpleAuction",
  "sourceName": "contracts/SimpleAuction.sol",
  "abi": [
    {
      "inputs": [
        {
          "internalType": "address payable",
          "name": "_beneficiary",
          "type": "address"
        }
      ],
      "stateMutability": "nonpayable",
      "type": "constructor"
    },
    {
      "anonymous": false,
      "inputs": [
        {
          "indexed": false,
          "internalType": "address",
          "name": "winner",
          "type": "address"
        },
        {
          "indexed": false,
          "internalType": "uint256",
          "name": "amount",
          "type": "uint256"
        }
      ],
      "name": "AuctionEnded",
      "type": "event"
    },
    {
      "anonymous": false,
      "inputs": [
        {
          "indexed": false,
          "internalType": "address",
          "name": "bidder",
          "type": "address"
        },
        {
          "indexed": false,
          "internalType": "uint256",
          "name": "amount",
          "type": "uint256"
        }
      ],
      "name": "HighestBidIncreased",
      "type": "event"
    },
    {
      "inputs": [],
      "name": "auctionEnd",
      "outputs": [],
      "stateMutability": "nonpayable",
      "type": "function"
    },
    {
      "inputs": [],
      "name": "auctionEndTime",
      "outputs": [
        {
          "internalType": "uint256",
          "name": "",
          "type": "uint256"
        }
      ],
      "stateMutability": "view",
      "type": "function"
    },
    {
      "inputs": [],
      "name": "beneficiary",
      "outputs": [
        {
          "internalType": "address payable",
          "name": "",
          "type": "address"
        }
      ],
      "stateMutability": "view",
      "type": "function"
    },
    {
      "inputs": [],
      "name": "bid",
      "outputs": [],
      "stateMutability": "payable",
      "type": "function"
    },
    {
      "inputs": [],
      "name": "highestBid",
      "outputs": [
        {
          "internalType": "uint256",
          "name": "",
          "type": "uint256"
        }
      ],
      "stateMutability": "view",
      "type": "function"
    },
    {
      "inputs": [],
      "name": "highestBidder",
      "outputs": [
        {
          "internalType": "address",
          "name": "",
          "type": "address"
        }
      ],
      "stateMutability": "view",
      "type": "function"
    },
    {
      "inputs": [],
      "name": "withdraw",
      "outputs": [
        {
          "internalType": "bool",
          "name": "",
          "type": "bool"
        }
      ],
      "stateMutability": "nonpayable",
      "type": "function"
    }
  ],
  "bytecode": "0x608060405234801561001057600080fd5b50604051610b6d380380610b6d833981810160405281019061003291906100a0565b806000806101000a81548173ffffffffffffffffffffffffffffffffffffffff021916908373ffffffffffffffffffffffffffffffffffffffff16021790555060784261007f91906100c9565b600181905550506101a1565b60008151905061009a8161018a565b92915050565b6000602082840312156100b257600080fd5b60006100c08482850161008b565b91505092915050565b60006100d482610151565b91506100df83610151565b9250827fffffffffffffffffffffffffffffffffffffffffffffffffffffffffffffffff038211156101145761011361015b565b5b828201905092915050565b600061012a82610131565b9050919050565b600073ffffffffffffffffffffffffffffffffffffffff82169050919050565b6000819050919050565b7f4e487b7100000000000000000000000000000000000000000000000000000000600052601160045260246000fd5b6101938161011f565b811461019e57600080fd5b50565b6109bd806101b06000396000f3fe6080604052600436106100705760003560e01c80633ccfd60b1161004e5780633ccfd60b146100c15780634b449cba146100ec57806391f9015714610117578063d57bde791461014257610070565b80631998aeef146100755780632a24f46c1461007f57806338af3eed14610096575b600080fd5b61007d61016d565b005b34801561008b57600080fd5b506100946102fe565b005b3480156100a257600080fd5b506100ab610476565b6040516100b891906106d3565b60405180910390f35b3480156100cd57600080fd5b506100d661049a565b6040516100e39190610717565b60405180910390f35b3480156100f857600080fd5b506101016105be565b60405161010e91906107b2565b60405180910390f35b34801561012357600080fd5b5061012c6105c4565b60405161013991906106b8565b60405180910390f35b34801561014e57600080fd5b506101576105ea565b60405161016491906107b2565b60405180910390f35b6001544211156101b2576040517f08c379a00000000000000000000000000000000000000000000000000000000081526004016101a990610732565b60405180910390fd5b60035434116101f6576040517f08c379a00000000000000000000000000000000000000000000000000000000081526004016101ed90610752565b60405180910390fd5b60006003541461027b5760035460046000600260009054906101000a900473ffffffffffffffffffffffffffffffffffffffff1673ffffffffffffffffffffffffffffffffffffffff1673ffffffffffffffffffffffffffffffffffffffff168152602001908152602001600020600082825461027391906107de565b925050819055505b33600260006101000a81548173ffffffffffffffffffffffffffffffffffffffff021916908373ffffffffffffffffffffffffffffffffffffffff160217905550346003819055507ff4757a49b326036464bec6fe419a4ae38c8a02ce3e68bf0809674f6aab8ad30033346040516102f49291906106ee565b60405180910390a1565b600154421015610343576040517f08c379a000000000000000000000000000000000000000000000000000000000815260040161033a90610772565b60405180910390fd5b600560009054906101000a900460ff1615610393576040517f08c379a000000000000000000000000000000000000000000000000000000000815260040161038a90610792565b60405180910390fd5b6001600560006101000a81548160ff0219169083151502179055507fdaec4582d5d9595688c8c98545fdd1c696d41c6aeaeb636737e84ed2f5c00eda600260009054906101000a900473ffffffffffffffffffffffffffffffffffffffff166003546040516104039291906106ee565b60405180910390a160008054906101000a900473ffffffffffffffffffffffffffffffffffffffff1673ffffffffffffffffffffffffffffffffffffffff166108fc6003549081150290604051600060405180830381858888f19350505050158015610473573d6000803e3d6000fd5b50565b60008054906101000a900473ffffffffffffffffffffffffffffffffffffffff1681565b600080600460003373ffffffffffffffffffffffffffffffffffffffff1673ffffffffffffffffffffffffffffffffffffffff16815260200190815260200160002054905060008111156105b5576000600460003373ffffffffffffffffffffffffffffffffffffffff1673ffffffffffffffffffffffffffffffffffffffff168152602001908152602001600020819055503373ffffffffffffffffffffffffffffffffffffffff166108fc829081150290604051600060405180830381858888f193505050506105b45780600460003373ffffffffffffffffffffffffffffffffffffffff1673ffffffffffffffffffffffffffffffffffffffff1681526020019081526020016000208190555060009150506105bb565b5b60019150505b90565b60015481565b600260009054906101000a900473ffffffffffffffffffffffffffffffffffffffff1681565b60035481565b6105f981610846565b82525050565b61060881610834565b82525050565b61061781610858565b82525050565b600061062a6016836107cd565b9150610635826108bd565b602082019050919050565b600061064d601e836107cd565b9150610658826108e6565b602082019050919050565b60006106706016836107cd565b915061067b8261090f565b602082019050919050565b60006106936023836107cd565b915061069e82610938565b604082019050919050565b6106b281610884565b82525050565b60006020820190506106cd60008301846105ff565b92915050565b60006020820190506106e860008301846105f0565b92915050565b600060408201905061070360008301856105ff565b61071060208301846106a9565b9392505050565b600060208201905061072c600083018461060e565b92915050565b6000602082019050818103600083015261074b8161061d565b9050919050565b6000602082019050818103600083015261076b81610640565b9050919050565b6000602082019050818103600083015261078b81610663565b9050919050565b600060208201905081810360008301526107ab81610686565b9050919050565b60006020820190506107c760008301846106a9565b92915050565b600082825260208201905092915050565b60006107e982610884565b91506107f483610884565b9250827fffffffffffffffffffffffffffffffffffffffffffffffffffffffffffffffff038211156108295761082861088e565b5b828201905092915050565b600061083f82610864565b9050919050565b600061085182610864565b9050919050565b60008115159050919050565b600073ffffffffffffffffffffffffffffffffffffffff82169050919050565b6000819050919050565b7f4e487b7100000000000000000000000000000000000000000000000000000000600052601160045260246000fd5b7f41756374696f6e20616c726561647920656e6465642e00000000000000000000600082015250565b7f546865726520616c7265616479206973206120686967686572206269642e0000600082015250565b7f41756374696f6e206e6f742079657420656e6465642e00000000000000000000600082015250565b7f61756374696f6e456e642068617320616c7265616479206265656e2063616c6c60008201527f65642e000000000000000000000000000000000000000000000000000000000060208201525056fea26469706673582212204b1d87a5bc842f9267f06e4326e655637ec21aec1fb47a6cad0d0143ded1d14264736f6c63430008040033",
  "linkReferences": {},
  "deployedLinkReferences": {}
}